{
  "transactions": [
    {
      "hash": "0xe1eb43030defd58dcd2e60c6c360e57b05aa446a37898f08dc6ccf9fbaf9921c",
      "transactionType": "CALL",
      "contractName": "TycoonRewardSystem",
      "contractAddress": "0x89ec427de89008f198a6efe5b893b50bdc8bf39e",
      "function": "setBackendMinter(address)",
      "arguments": [
        "0xA97fC9666a41cDAE3EFb74A4CaC87B9d33A16F0e"
      ],
      "transaction": {
        "from": "0xe870b4814ec306b88f77833cd6c98eb388a30cbc",
        "to": "0x89ec427de89008f198a6efe5b893b50bdc8bf39e",
        "gas": "0xa2a1",
        "value": "0x0",
        "input": "0x28324245000000000000000000000000a97fc9666a41cdae3efb74a4cac87b9d33a16f0e",
        "nonce": "0x28b",
        "chainId": "0xa4ec"
      },
      "additionalContracts": [],
      "isFixedGasLimit": false
    }
  ],
  "receipts": [
    {
      "status": "0x1",
      "cumulativeGasUsed": "0x371d04",
      "logs": [
        {
          "address": "0x89ec427de89008f198a6efe5b893b50bdc8bf39e",
          "topics": [
            "0xb814dd4fb6d36cc89ef5be23fa21c527ab72b7200482a5a4a84ea31c9c507a50",
            "0x000000000000000000000000a97fc9666a41cdae3efb74a4cac87b9d33a16f0e"
          ],
          "data": "0x",
          "blockHash": "0xd07588ce079dab66e662749635904f9aabd1c7f94cae7196e872f699d41a871d",
          "blockNumber": "0x3aaadfd",
          "transactionHash": "0xe1eb43030defd58dcd2e60c6c360e57b05aa446a37898f08dc6ccf9fbaf9921c",
          "transactionIndex": "0x12",
          "logIndex": "0x59",
          "removed": false
        }
      ],
      "logsBloom": "0x00000000000000000000000000000000000000000000008000000000000000000000100000000000000000000000000000000000000000000000000000000000000000000000000000000000000000000000000000000000040000000000000000000000000000000000000000000000000000000000000000000000000000000000000000000000000000001000000040000000000000000000000000000000000000000000000000001000000000000000000000000000000000000000000000000000000000000000000000000000000010000000000100000000000800000000000000000000000000000000000000000000000000000000000000000000",
      "type": "0x2",
      "transactionHash": "0xe1eb43030defd58dcd2e60c6c360e57b05aa446a37898f08dc6ccf9fbaf9921c",
      "transactionIndex": "0x12",
      "blockHash": "0xd07588ce079dab66e662749635904f9aabd1c7f94cae7196e872f699d41a871d",
      "blockNumber": "0x3aaadfd",
      "gasUsed": "0x75bf",
      "effectiveGasPrice": "0x5d22e82d3",
      "from": "0xe870b4814ec306b88f77833cd6c98eb388a30cbc",
      "to": "0x89ec427de89008f198a6efe5b893b50bdc8bf39e",
      "contractAddress": null,
      "l1BaseFeeScalar": "0x0",
      "l1BlobBaseFee": "0x663522aaabcaaff",
      "l1BlobBaseFeeScalar": "0x0",
      "l1Fee": "0x0",
      "l1GasPrice": "0x2ca9e5bc",
      "l1GasUsed": "0x640"
    }
  ],
  "libraries": [],
  "pending": [],
  "returns": {},
  "timestamp": 1773418068461,
  "chain": 42220,
  "commit": "08855e5"
}