{
  "transactions": [
    {
      "hash": "0x47e805d5b7a30965d6544ebce18e4d2c15f47d6a67031081cee113da9b2f2ce2",
      "transactionType": "CALL",
      "contractName": "TycoonTournamentEscrow",
      "contractAddress": "0x229ba33b3cc28871d76235b3c50e38cbd8bf9c6c",
      "function": "setBackend(address)",
      "arguments": [
        "0xFb0331d4F586D38Df611E34b9bC77a99F96f09ee"
      ],
      "transaction": {
        "from": "0xe870b4814ec306b88f77833cd6c98eb388a30cbc",
        "to": "0x229ba33b3cc28871d76235b3c50e38cbd8bf9c6c",
        "gas": "0x11121",
        "value": "0x0",
        "input": "0xda7fc24f000000000000000000000000fb0331d4f586d38df611e34b9bc77a99f96f09ee",
        "nonce": "0x404",
        "chainId": "0xa4ec"
      },
      "additionalContracts": [],
      "isFixedGasLimit": false
    }
  ],
  "receipts": [
    {
      "status": "0x1",
      "cumulativeGasUsed": "0x1a3953",
      "logs": [
        {
          "address": "0x229ba33b3cc28871d76235b3c50e38cbd8bf9c6c",
          "topics": [
            "0x37f6c561371bb449a598aaf7e5528fc87ad233e82669756cd67fec9c5f665a7b",
            "0x0000000000000000000000000000000000000000000000000000000000000000",
            "0x000000000000000000000000fb0331d4f586d38df611e34b9bc77a99f96f09ee"
          ],
          "data": "0x",
          "blockHash": "0x50c7d7b0c20db7a55e66311e784430b1ba6224201300cbd18afa446e77b4279b",
          "blockNumber": "0x3b51ef7",
          "blockTimestamp": "0x69bea74d",
          "transactionHash": "0x47e805d5b7a30965d6544ebce18e4d2c15f47d6a67031081cee113da9b2f2ce2",
          "transactionIndex": "0x7",
          "logIndex": "0xd1",
          "removed": false
        }
      ],
      "logsBloom": "0x00000000000100000000000000000000000000000000000000000000000000000000000000000000000002000000000000000040000000000000000000000000000000000000000000000000000000000001000000000000000000000000000000000000020000000000000000000800000000000000000000000000800000000000000000001000020000000000000000000000000000000000000000000000000000000000000000000000000000000000000000080000000000000000000000000000000000000000000000000000000000000000000000000000000020000000000000002000000000000000000000000000000000000000000000000000",
      "type": "0x2",
      "transactionHash": "0x47e805d5b7a30965d6544ebce18e4d2c15f47d6a67031081cee113da9b2f2ce2",
      "transactionIndex": "0x7",
      "blockHash": "0x50c7d7b0c20db7a55e66311e784430b1ba6224201300cbd18afa446e77b4279b",
      "blockNumber": "0x3b51ef7",
      "gasUsed": "0xbac2",
      "effectiveGasPrice": "0x5d22e82d4",
      "from": "0xe870b4814ec306b88f77833cd6c98eb388a30cbc",
      "to": "0x229ba33b3cc28871d76235b3c50e38cbd8bf9c6c",
      "contractAddress": null,
      "l1BaseFeeScalar": "0x0",
      "l1BlobBaseFee": "0x2063e3e02dcfe",
      "l1BlobBaseFeeScalar": "0x0",
      "l1Fee": "0x0",
      "l1GasPrice": "0x25b7a93",
      "l1GasUsed": "0x640"
    }
  ],
  "libraries": [],
  "pending": [],
  "returns": {},
  "timestamp": 1774102350583,
  "chain": 42220,
  "commit": "e74c160"
}