{
  "transactions": [
    {
      "hash": "0xcd98d1768dc67de061fed95e696916f2e98e72c4a17cadc2c1ff64bc37d10acf",
      "transactionType": "CALL",
      "contractName": "TycoonTournamentEscrow",
      "contractAddress": "0xd1b710e781a8af0b4d5facf0f35384acfb5fdabe",
      "function": "setBackend(address)",
      "arguments": [
        "0xFb0331d4F586D38Df611E34b9bC77a99F96f09ee"
      ],
      "transaction": {
        "from": "0xe870b4814ec306b88f77833cd6c98eb388a30cbc",
        "to": "0xd1b710e781a8af0b4d5facf0f35384acfb5fdabe",
        "gas": "0x11121",
        "value": "0x0",
        "input": "0xda7fc24f000000000000000000000000fb0331d4f586d38df611e34b9bc77a99f96f09ee",
        "nonce": "0x3ed",
        "chainId": "0xa4ec"
      },
      "additionalContracts": [],
      "isFixedGasLimit": false
    }
  ],
  "receipts": [
    {
      "status": "0x1",
      "cumulativeGasUsed": "0x30f49d",
      "logs": [
        {
          "address": "0xd1b710e781a8af0b4d5facf0f35384acfb5fdabe",
          "topics": [
            "0x37f6c561371bb449a598aaf7e5528fc87ad233e82669756cd67fec9c5f665a7b",
            "0x0000000000000000000000000000000000000000000000000000000000000000",
            "0x000000000000000000000000fb0331d4f586d38df611e34b9bc77a99f96f09ee"
          ],
          "data": "0x",
          "blockHash": "0x84f11cb7a08dfa58203ad47338d0aeace15cb2fee3dfccbd076442cc796a7f51",
          "blockNumber": "0x3b3e996",
          "blockTimestamp": "0x69bd71ec",
          "transactionHash": "0xcd98d1768dc67de061fed95e696916f2e98e72c4a17cadc2c1ff64bc37d10acf",
          "transactionIndex": "0xd",
          "logIndex": "0xfb",
          "removed": false
        }
      ],
      "logsBloom": "0x00000000000100000000000000000000000000000000000000000000000000000000000000000000000002000000000000000040000000000000000000000000000000000000000000000000000000000001000000000000000000000000000000000000020000000000000000000800000000000000000000020000000000000000000000001000000000000000000000000000000000000000000000000000000400000000000000000000000000000000000000000000000000000000000000000000000000000000000000000000000000400000000000000000000020000000000000002000000000000000000000000000000000000000000000000000",
      "type": "0x2",
      "transactionHash": "0xcd98d1768dc67de061fed95e696916f2e98e72c4a17cadc2c1ff64bc37d10acf",
      "transactionIndex": "0xd",
      "blockHash": "0x84f11cb7a08dfa58203ad47338d0aeace15cb2fee3dfccbd076442cc796a7f51",
      "blockNumber": "0x3b3e996",
      "gasUsed": "0xbac2",
      "effectiveGasPrice": "0x5d22e82d6",
      "from": "0xe870b4814ec306b88f77833cd6c98eb388a30cbc",
      "to": "0xd1b710e781a8af0b4d5facf0f35384acfb5fdabe",
      "contractAddress": null,
      "l1BaseFeeScalar": "0x0",
      "l1BlobBaseFee": "0x8f0d396e515466",
      "l1BlobBaseFeeScalar": "0x0",
      "l1Fee": "0x0",
      "l1GasPrice": "0xc6498d0",
      "l1GasUsed": "0x640"
    }
  ],
  "libraries": [],
  "pending": [],
  "returns": {},
  "timestamp": 1774023149537,
  "chain": 42220,
  "commit": "3498cf1"
}